{
  "_format": "hh-sol-artifact-1",
  "contractName": "CrowdFunding",
  "sourceName": "contracts/CrowdFunding.sol",
  "abi": [
    {
      "anonymous": false,
      "inputs": [
        {
          "indexed": true,
          "internalType": "uint256",
          "name": "id",
          "type": "uint256"
        },
        {
          "indexed": true,
          "internalType": "address",
          "name": "owner",
          "type": "address"
        },
        {
          "indexed": false,
          "internalType": "string",
          "name": "description",
          "type": "string"
        },
        {
          "indexed": false,
          "internalType": "uint256",
          "name": "goal",
          "type": "uint256"
        },
        {
          "indexed": false,
          "internalType": "uint256",
          "name": "deadline",
          "type": "uint256"
        }
      ],
      "name": "CampaignCreated",
      "type": "event"
    },
    {
      "anonymous": false,
      "inputs": [
        {
          "indexed": true,
          "internalType": "uint256",
          "name": "id",
          "type": "uint256"
        },
        {
          "indexed": true,
          "internalType": "address",
          "name": "contributor",
          "type": "address"
        },
        {
          "indexed": false,
          "internalType": "uint256",
          "name": "amount",
          "type": "uint256"
        }
      ],
      "name": "ContributionReceived",
      "type": "event"
    },
    {
      "anonymous": false,
      "inputs": [
        {
          "indexed": true,
          "internalType": "uint256",
          "name": "id",
          "type": "uint256"
        },
        {
          "indexed": true,
          "internalType": "address",
          "name": "contributor",
          "type": "address"
        },
        {
          "indexed": false,
          "internalType": "uint256",
          "name": "amount",
          "type": "uint256"
        }
      ],
      "name": "Refunded",
      "type": "event"
    },
    {
      "anonymous": false,
      "inputs": [
        {
          "indexed": true,
          "internalType": "uint256",
          "name": "id",
          "type": "uint256"
        },
        {
          "indexed": true,
          "internalType": "address",
          "name": "owner",
          "type": "address"
        },
        {
          "indexed": false,
          "internalType": "uint256",
          "name": "amount",
          "type": "uint256"
        }
      ],
      "name": "Withdrawn",
      "type": "event"
    },
    {
      "inputs": [],
      "name": "campaignCount",
      "outputs": [
        {
          "internalType": "uint256",
          "name": "",
          "type": "uint256"
        }
      ],
      "stateMutability": "view",
      "type": "function"
    },
    {
      "inputs": [
        {
          "internalType": "uint256",
          "name": "",
          "type": "uint256"
        }
      ],
      "name": "campaigns",
      "outputs": [
        {
          "internalType": "address",
          "name": "owner",
          "type": "address"
        },
        {
          "internalType": "string",
          "name": "description",
          "type": "string"
        },
        {
          "internalType": "uint256",
          "name": "goal",
          "type": "uint256"
        },
        {
          "internalType": "uint256",
          "name": "deadline",
          "type": "uint256"
        },
        {
          "internalType": "uint256",
          "name": "amountRaised",
          "type": "uint256"
        },
        {
          "internalType": "bool",
          "name": "withdrawn",
          "type": "bool"
        }
      ],
      "stateMutability": "view",
      "type": "function"
    },
    {
      "inputs": [
        {
          "internalType": "uint256",
          "name": "id",
          "type": "uint256"
        }
      ],
      "name": "contribute",
      "outputs": [],
      "stateMutability": "payable",
      "type": "function"
    },
    {
      "inputs": [
        {
          "internalType": "string",
          "name": "description",
          "type": "string"
        },
        {
          "internalType": "uint256",
          "name": "goal",
          "type": "uint256"
        },
        {
          "internalType": "uint256",
          "name": "duration",
          "type": "uint256"
        }
      ],
      "name": "createCampaign",
      "outputs": [],
      "stateMutability": "nonpayable",
      "type": "function"
    },
    {
      "inputs": [],
      "name": "getAllCampaignIds",
      "outputs": [
        {
          "internalType": "uint256[]",
          "name": "",
          "type": "uint256[]"
        }
      ],
      "stateMutability": "view",
      "type": "function"
    },
    {
      "inputs": [
        {
          "internalType": "uint256",
          "name": "id",
          "type": "uint256"
        }
      ],
      "name": "getCampaignDetails",
      "outputs": [
        {
          "internalType": "address",
          "name": "owner",
          "type": "address"
        },
        {
          "internalType": "string",
          "name": "description",
          "type": "string"
        },
        {
          "internalType": "uint256",
          "name": "goal",
          "type": "uint256"
        },
        {
          "internalType": "uint256",
          "name": "deadline",
          "type": "uint256"
        },
        {
          "internalType": "uint256",
          "name": "amountRaised",
          "type": "uint256"
        },
        {
          "internalType": "bool",
          "name": "withdrawn",
          "type": "bool"
        }
      ],
      "stateMutability": "view",
      "type": "function"
    },
    {
      "inputs": [
        {
          "internalType": "uint256",
          "name": "id",
          "type": "uint256"
        },
        {
          "internalType": "address",
          "name": "user",
          "type": "address"
        }
      ],
      "name": "getContribution",
      "outputs": [
        {
          "internalType": "uint256",
          "name": "",
          "type": "uint256"
        }
      ],
      "stateMutability": "view",
      "type": "function"
    },
    {
      "inputs": [
        {
          "internalType": "uint256",
          "name": "id",
          "type": "uint256"
        }
      ],
      "name": "getContributors",
      "outputs": [
        {
          "internalType": "address[]",
          "name": "",
          "type": "address[]"
        }
      ],
      "stateMutability": "view",
      "type": "function"
    },
    {
      "inputs": [
        {
          "internalType": "uint256",
          "name": "id",
          "type": "uint256"
        }
      ],
      "name": "refund",
      "outputs": [],
      "stateMutability": "nonpayable",
      "type": "function"
    },
    {
      "inputs": [
        {
          "internalType": "uint256",
          "name": "id",
          "type": "uint256"
        }
      ],
      "name": "withdraw",
      "outputs": [],
      "stateMutability": "nonpayable",
      "type": "function"
    }
  ],
  "bytecode": "0x6080604052348015600f57600080fd5b50611d6c8061001f6000396000f3fe6080604052600436106100915760003560e01c80633c1ab00f116100595780633c1ab00f1461017e5780637274e30d146101bb578063c1cbbca7146101e6578063d993de6214610202578063e081dbf91461024457610091565b80630418249614610096578063141961bc146100c1578063278ecde1146101035780632e1a7d4d1461012c5780633020580b14610155575b600080fd5b3480156100a257600080fd5b506100ab610281565b6040516100b89190610fe7565b60405180910390f35b3480156100cd57600080fd5b506100e860048036038101906100e3919061103f565b6102d9565b6040516100fa96959493929190611167565b60405180910390f35b34801561010f57600080fd5b5061012a6004803603810190610125919061103f565b6103ca565b005b34801561013857600080fd5b50610153600480360381019061014e919061103f565b610643565b005b34801561016157600080fd5b5061017c60048036038101906101779190611234565b61093f565b005b34801561018a57600080fd5b506101a560048036038101906101a0919061103f565b610af5565b6040516101b29190611366565b60405180910390f35b3480156101c757600080fd5b506101d0610b99565b6040516101dd9190611388565b60405180910390f35b61020060048036038101906101fb919061103f565b610b9f565b005b34801561020e57600080fd5b506102296004803603810190610224919061103f565b610db4565b60405161023b96959493929190611167565b60405180910390f35b34801561025057600080fd5b5061026b600480360381019061026691906113cf565b610ec1565b6040516102789190611388565b60405180910390f35b606060028054806020026020016040519081016040528092919081815260200182805480156102cf57602002820191906000526020600020905b8154815260200190600101908083116102bb575b5050505050905090565b60016020528060005260406000206000915090508060000160009054906101000a900473ffffffffffffffffffffffffffffffffffffffff16908060010180546103229061143e565b80601f016020809104026020016040519081016040528092919081815260200182805461034e9061143e565b801561039b5780601f106103705761010080835404028352916020019161039b565b820191906000526020600020905b81548152906001019060200180831161037e57829003601f168201915b5050505050908060020154908060030154908060040154908060050160009054906101000a900460ff16905086565b60006001600083815260200190815260200160002090508060030154421015610428576040517f08c379a000000000000000000000000000000000000000000000000000000000815260040161041f906114bb565b60405180910390fd5b8060020154816004015410610472576040517f08c379a000000000000000000000000000000000000000000000000000000000815260040161046990611527565b60405180910390fd5b60008160060160003373ffffffffffffffffffffffffffffffffffffffff1673ffffffffffffffffffffffffffffffffffffffff168152602001908152602001600020549050600081116104fb576040517f08c379a00000000000000000000000000000000000000000000000000000000081526004016104f290611593565b60405180910390fd5b60008260060160003373ffffffffffffffffffffffffffffffffffffffff1673ffffffffffffffffffffffffffffffffffffffff1681526020019081526020016000208190555060003373ffffffffffffffffffffffffffffffffffffffff1682604051610568906115e4565b60006040518083038185875af1925050503d80600081146105a5576040519150601f19603f3d011682016040523d82523d6000602084013e6105aa565b606091505b50509050806105ee576040517f08c379a00000000000000000000000000000000000000000000000000000000081526004016105e590611645565b60405180910390fd5b3373ffffffffffffffffffffffffffffffffffffffff16847f7ca5472b7ea78c2c0141c5a12ee6d170cf4ce8ed06be3d22c8252ddfc7a6a2c4846040516106359190611388565b60405180910390a350505050565b60006001600083815260200190815260200160002090508060000160009054906101000a900473ffffffffffffffffffffffffffffffffffffffff1673ffffffffffffffffffffffffffffffffffffffff163373ffffffffffffffffffffffffffffffffffffffff16146106ec576040517f08c379a00000000000000000000000000000000000000000000000000000000081526004016106e3906116b1565b60405180910390fd5b8060030154421015610733576040517f08c379a000000000000000000000000000000000000000000000000000000000815260040161072a906114bb565b60405180910390fd5b80600201548160040154101561077e576040517f08c379a00000000000000000000000000000000000000000000000000000000081526004016107759061171d565b60405180910390fd5b8060050160009054906101000a900460ff16156107d0576040517f08c379a00000000000000000000000000000000000000000000000000000000081526004016107c790611789565b60405180910390fd5b60018160050160006101000a81548160ff02191690831515021790555060008160040154905060008260000160009054906101000a900473ffffffffffffffffffffffffffffffffffffffff1673ffffffffffffffffffffffffffffffffffffffff1682604051610840906115e4565b60006040518083038185875af1925050503d806000811461087d576040519150601f19603f3d011682016040523d82523d6000602084013e610882565b606091505b50509050806108c6576040517f08c379a00000000000000000000000000000000000000000000000000000000081526004016108bd906117f5565b60405180910390fd5b8260000160009054906101000a900473ffffffffffffffffffffffffffffffffffffffff1673ffffffffffffffffffffffffffffffffffffffff16847fcf7d23a3cbe4e8b36ff82fd1b05b1b17373dc7804b4ebbd6e2356716ef202372846040516109319190611388565b60405180910390a350505050565b60008211610982576040517f08c379a000000000000000000000000000000000000000000000000000000000815260040161097990611861565b60405180910390fd5b600081116109c5576040517f08c379a00000000000000000000000000000000000000000000000000000000081526004016109bc90611861565b60405180910390fd5b6000808154809291906109d7906118b0565b9190505550600060016000805481526020019081526020016000209050338160000160006101000a81548173ffffffffffffffffffffffffffffffffffffffff021916908373ffffffffffffffffffffffffffffffffffffffff1602179055508484826001019182610a4a929190611ade565b508281600201819055508142610a609190611bae565b8160030181905550600260005490806001815401808255809150506001900390600052602060002001600090919091909150553373ffffffffffffffffffffffffffffffffffffffff166000547fdc26653af5b99b2da33e2ad69ee6600d9aeccc82b034501db4338309615ca2388787878660030154604051610ae69493929190611c1e565b60405180910390a35050505050565b606060016000838152602001908152602001600020600701805480602002602001604051908101604052809291908181526020018280548015610b8d57602002820191906000526020600020905b8160009054906101000a900473ffffffffffffffffffffffffffffffffffffffff1673ffffffffffffffffffffffffffffffffffffffff1681526020019060010190808311610b43575b50505050509050919050565b60005481565b600060016000838152602001908152602001600020905080600301544210610bfc576040517f08c379a0000000000000000000000000000000000000000000000000000000008152600401610bf390611caa565b60405180910390fd5b60003411610c3f576040517f08c379a0000000000000000000000000000000000000000000000000000000008152600401610c3690611d16565b60405180910390fd5b60008160060160003373ffffffffffffffffffffffffffffffffffffffff1673ffffffffffffffffffffffffffffffffffffffff1681526020019081526020016000205403610cee5780600701339080600181540180825580915050600190039060005260206000200160009091909190916101000a81548173ffffffffffffffffffffffffffffffffffffffff021916908373ffffffffffffffffffffffffffffffffffffffff1602179055505b348160060160003373ffffffffffffffffffffffffffffffffffffffff1673ffffffffffffffffffffffffffffffffffffffff1681526020019081526020016000206000828254610d3f9190611bae565b9250508190555034816004016000828254610d5a9190611bae565b925050819055503373ffffffffffffffffffffffffffffffffffffffff16827f865c884d49c8cecaef108efb20f7d282f26c0f9b0d24dd48e5592d4e02ec658d34604051610da89190611388565b60405180910390a35050565b6000606060008060008060006001600089815260200190815260200160002090508060000160009054906101000a900473ffffffffffffffffffffffffffffffffffffffff16816001018260020154836003015484600401548560050160009054906101000a900460ff16848054610e2b9061143e565b80601f0160208091040260200160405190810160405280929190818152602001828054610e579061143e565b8015610ea45780601f10610e7957610100808354040283529160200191610ea4565b820191906000526020600020905b815481529060010190602001808311610e8757829003601f168201915b505050505094509650965096509650965096505091939550919395565b60006001600084815260200190815260200160002060060160008373ffffffffffffffffffffffffffffffffffffffff1673ffffffffffffffffffffffffffffffffffffffff16815260200190815260200160002054905092915050565b600081519050919050565b600082825260208201905092915050565b6000819050602082019050919050565b6000819050919050565b610f5e81610f4b565b82525050565b6000610f708383610f55565b60208301905092915050565b6000602082019050919050565b6000610f9482610f1f565b610f9e8185610f2a565b9350610fa983610f3b565b8060005b83811015610fda578151610fc18882610f64565b9750610fcc83610f7c565b925050600181019050610fad565b5085935050505092915050565b600060208201905081810360008301526110018184610f89565b905092915050565b600080fd5b600080fd5b61101c81610f4b565b811461102757600080fd5b50565b60008135905061103981611013565b92915050565b60006020828403121561105557611054611009565b5b60006110638482850161102a565b91505092915050565b600073ffffffffffffffffffffffffffffffffffffffff82169050919050565b60006110978261106c565b9050919050565b6110a78161108c565b82525050565b600081519050919050565b600082825260208201905092915050565b60005b838110156110e75780820151818401526020810190506110cc565b60008484015250505050565b6000601f19601f8301169050919050565b600061110f826110ad565b61111981856110b8565b93506111298185602086016110c9565b611132816110f3565b840191505092915050565b61114681610f4b565b82525050565b60008115159050919050565b6111618161114c565b82525050565b600060c08201905061117c600083018961109e565b818103602083015261118e8188611104565b905061119d604083018761113d565b6111aa606083018661113d565b6111b7608083018561113d565b6111c460a0830184611158565b979650505050505050565b600080fd5b600080fd5b600080fd5b60008083601f8401126111f4576111f36111cf565b5b8235905067ffffffffffffffff811115611211576112106111d4565b5b60208301915083600182028301111561122d5761122c6111d9565b5b9250929050565b6000806000806060858703121561124e5761124d611009565b5b600085013567ffffffffffffffff81111561126c5761126b61100e565b5b611278878288016111de565b9450945050602061128b8782880161102a565b925050604061129c8782880161102a565b91505092959194509250565b600081519050919050565b600082825260208201905092915050565b6000819050602082019050919050565b6112dd8161108c565b82525050565b60006112ef83836112d4565b60208301905092915050565b6000602082019050919050565b6000611313826112a8565b61131d81856112b3565b9350611328836112c4565b8060005b8381101561135957815161134088826112e3565b975061134b836112fb565b92505060018101905061132c565b5085935050505092915050565b600060208201905081810360008301526113808184611308565b905092915050565b600060208201905061139d600083018461113d565b92915050565b6113ac8161108c565b81146113b757600080fd5b50565b6000813590506113c9816113a3565b92915050565b600080604083850312156113e6576113e5611009565b5b60006113f48582860161102a565b9250506020611405858286016113ba565b9150509250929050565b7f4e487b7100000000000000000000000000000000000000000000000000000000600052602260045260246000fd5b6000600282049050600182168061145657607f821691505b6020821081036114695761146861140f565b5b50919050565b7f4e6f7420656e6465640000000000000000000000000000000000000000000000600082015250565b60006114a56009836110b8565b91506114b08261146f565b602082019050919050565b600060208201905081810360008301526114d481611498565b9050919050565b7f476f616c206d6574000000000000000000000000000000000000000000000000600082015250565b60006115116008836110b8565b915061151c826114db565b602082019050919050565b6000602082019050818103600083015261154081611504565b9050919050565b7f4e6f20636f6e747269627574696f6e0000000000000000000000000000000000600082015250565b600061157d600f836110b8565b915061158882611547565b602082019050919050565b600060208201905081810360008301526115ac81611570565b9050919050565b600081905092915050565b50565b60006115ce6000836115b3565b91506115d9826115be565b600082019050919050565b60006115ef826115c1565b9150819050919050565b7f526566756e64206661696c656400000000000000000000000000000000000000600082015250565b600061162f600d836110b8565b915061163a826115f9565b602082019050919050565b6000602082019050818103600083015261165e81611622565b9050919050565b7f4e6f74206f776e65720000000000000000000000000000000000000000000000600082015250565b600061169b6009836110b8565b91506116a682611665565b602082019050919050565b600060208201905081810360008301526116ca8161168e565b9050919050565b7f476f616c206e6f74206d65740000000000000000000000000000000000000000600082015250565b6000611707600c836110b8565b9150611712826116d1565b602082019050919050565b60006020820190508181036000830152611736816116fa565b9050919050565b7f416c72656164792077697468647261776e000000000000000000000000000000600082015250565b60006117736011836110b8565b915061177e8261173d565b602082019050919050565b600060208201905081810360008301526117a281611766565b9050919050565b7f5769746864726177206661696c65640000000000000000000000000000000000600082015250565b60006117df600f836110b8565b91506117ea826117a9565b602082019050919050565b6000602082019050818103600083015261180e816117d2565b9050919050565b7f6d75737420626520706f73697469766500000000000000000000000000000000600082015250565b600061184b6010836110b8565b915061185682611815565b602082019050919050565b6000602082019050818103600083015261187a8161183e565b9050919050565b7f4e487b7100000000000000000000000000000000000000000000000000000000600052601160045260246000fd5b60006118bb82610f4b565b91507fffffffffffffffffffffffffffffffffffffffffffffffffffffffffffffffff82036118ed576118ec611881565b5b600182019050919050565b600082905092915050565b7f4e487b7100000000000000000000000000000000000000000000000000000000600052604160045260246000fd5b60008190508160005260206000209050919050565b60006020601f8301049050919050565b600082821b905092915050565b6000600883026119947fffffffffffffffffffffffffffffffffffffffffffffffffffffffffffffffff82611957565b61199e8683611957565b95508019841693508086168417925050509392505050565b6000819050919050565b60006119db6119d66119d184610f4b565b6119b6565b610f4b565b9050919050565b6000819050919050565b6119f5836119c0565b611a09611a01826119e2565b848454611964565b825550505050565b600090565b611a1e611a11565b611a298184846119ec565b505050565b5b81811015611a4d57611a42600082611a16565b600181019050611a2f565b5050565b601f821115611a9257611a6381611932565b611a6c84611947565b81016020851015611a7b578190505b611a8f611a8785611947565b830182611a2e565b50505b505050565b600082821c905092915050565b6000611ab560001984600802611a97565b1980831691505092915050565b6000611ace8383611aa4565b9150826002028217905092915050565b611ae883836118f8565b67ffffffffffffffff811115611b0157611b00611903565b5b611b0b825461143e565b611b16828285611a51565b6000601f831160018114611b455760008415611b33578287013590505b611b3d8582611ac2565b865550611ba5565b601f198416611b5386611932565b60005b82811015611b7b57848901358255600182019150602085019450602081019050611b56565b86831015611b985784890135611b94601f891682611aa4565b8355505b6001600288020188555050505b50505050505050565b6000611bb982610f4b565b9150611bc483610f4b565b9250828201905080821115611bdc57611bdb611881565b5b92915050565b82818337600083830152505050565b6000611bfd83856110b8565b9350611c0a838584611be2565b611c13836110f3565b840190509392505050565b60006060820190508181036000830152611c39818688611bf1565b9050611c48602083018561113d565b611c55604083018461113d565b95945050505050565b7f43616d706169676e20656e646564000000000000000000000000000000000000600082015250565b6000611c94600e836110b8565b9150611c9f82611c5e565b602082019050919050565b60006020820190508181036000830152611cc381611c87565b9050919050565b7f4e6f204554482073656e74000000000000000000000000000000000000000000600082015250565b6000611d00600b836110b8565b9150611d0b82611cca565b602082019050919050565b60006020820190508181036000830152611d2f81611cf3565b905091905056fea26469706673582212203dcd2b0469e602dbe8777cf1af56cd97b4127b1816c7c6620c55ea62a322979064736f6c634300081c0033",
  "linkReferences": {},
  "deployedLinkReferences": {}
}